:020000040800F2
:1000000000500020B5070008F5070008F5070008B4
:10001000F5070008F5070008F507000800000000D4
:10002000000000000000000000000000F5070008CC
:10003000F507000800000000F5070008F5070008B4
:10004000F5070008F5070008F5070008F5070008A0
:10005000F5070008F5070008F5070008F507000890
:10006000F5070008F5070008F5070008E902000891
:10007000F5070008F5070008F5070008F507000870
:10008000F5070008F5070008F5070008F507000860
:10009000F5070008F5070008F5070008F507000850
:1000A000F5070008F5070008F5070008F507000840
:1000B000F5070008F5070008F5070008F507000830
:1000C000F5070008F5070008F5070008F507000820
:1000D000F5070008F5070008F5070008F507000810
:1000E000F5070008F5070008F5070008F507000800
:1000F000F5070008F5070008F5070008F5070008F0
:10010000F5070008F5070008F5070008F5070008DF
:10011000F5070008F5070008F5070008F5070008CF
:10012000F5070008F5070008F5070008F5070008BF
:1001300080B483B000AF78600E4B0F4A5A600D4B0D
:1001400005221A6009E00B4B00229A6000BF094BA0
:100150001B6803F48033002BF9D07B685A1E7A6049
:10016000002BF0D1034B00221A6000BF0C37BD46B4
:1001700080BC704710E000E03F19010080B500AF7F
:10018000394B5B68384A23F440435360364B5B6815
:10019000354A43F400435360334B9B69324A43F47E
:1001A00001739361314B1B68304A23F47003136071
:1001B0002F4B00225A602E4B1B692D4A23F46033CB
:1001C00013612B4B1B692A4A43F460331361284B9C
:1001D000DB6A274A23F47003D362254B5B6B244A06
:1001E00023F01F035363224B5B6B214A43F005034B
:1001F00053631F4B00229A601D4B9B681C4A43F4BB
:10020000002393601A4B9B68194A43F48013936050
:10021000174B9B68164A43F480739360144B9B689A
:10022000134A43F0010393600120FFF781FF104B55
:100230009B680F4A43F00803936000BF0C4B9B6818
:1002400003F00803002BF9D1094B9B68084A43F0DF
:100250000403936000BF064B9B6803F00403002B6C
:10026000F9D100BF00BF80BD00100240000801406E
:100270000024014080B400AF144B5B69134A43F083
:1002800001035361124B00221A60114B114A9A600C
:100290000F4B114ADA600E4B64225A600C4B42F24B
:1002A000A6521A600D4B0F225A600D4B10221A7085
:1002B0000C4B4FF400621A60054B1B68044A43F074
:1002C0000103136000BFBD4680BC704700100240B0
:1002D000080002404C2401400000002000000240C1
:1002E0000BE400E000E100E080B483B000AF0F4B0E
:1002F0001B687B607B6803F00403002B05D00B4B6D
:1003000004225A600A4B01221A707B6803F0020330
:10031000002B05D0054B02225A60064B01221A70B1
:1003200000BF0C37BD4680BC704700BF00000240D4
:10033000C8000020C900002080B400AF3A4B1B6801
:10034000394A43F48033136000BF374B1B6803F412
:100350000033002BF9D0354B1B68344A43F01003AF
:100360001360324B1B68314A23F0070313602F4B95
:100370001B682E4A43F0020313602B4B5B682A4A2A
:1003800023F0F0035360284B5B68274A23F4E063B3
:100390005360254B5B68244A43F480635360224BCF
:1003A0005B68214A23F4605353601F4B5B681E4A0D
:1003B00043F4803353601C4B5B681B4A23F40033C7
:1003C0005360194B5B68184A23F470135360164B43
:1003D0005B68154A43F4E0135360134B1B68124AE1
:1003E00043F08073136000BF0F4B1B6803F0007372
:1003F000002BF9D00C4B5B680B4A23F003035360CE
:10040000094B5B68084A43F00203536000BF064B88
:100410005B689B0803F00303022BF8D100BF00BF09
:10042000BD4680BC704700BF001002400020024063
:1004300080B400AF0D4B9B690C4A43F010039361ED
:100440000B4B5B680A4A23F470035360084B5B68EC
:10045000074A43F400135360054BDB68044A43F436
:100460000053D36000BFBD4680BC704700100240FF
:100470000010014080B400AF044BDB68034A83F4F2
:100480000053D36000BFBD4680BC704700100140E0
:1004900080B489B000AFF860B9601346FB800023D8
:1004A000FB830023BB8357E0BB8B5B00BA6813441C
:1004B0001B887B8300237B767B8B002B23D17B7E69
:1004C0005A1C7A7620333B44302203F80C2C1AE075
:1004D0007A8B264BA3FB0213D9080B469B000B44D7
:1004E0005B00D31A9BB2DAB27B7E591C797630322C
:1004F000D2B220333B4403F80C2C7B8B1B4AA2FB6B
:100500000323DB087B837B8B002BE1D10EE07B7E1A
:10051000013B7B767A7EFB8B591CF9831946FB687D
:100520000B4420323A4412F80C2C1A707B7E002BBC
:10053000EDD1FB8B5A1CFA831A46FB6813440A223E
:100540001A70FB8B5A1CFA831A46FB6813440D225F
:100550001A70BB8B0133BB83BA8BFB889A42A3D33F
:10056000FB8B18462437BD4680BC7047CDCCCCCC25
:1005700080B584B000AF786000BF0A4B5B68002B89
:10058000FBD1322279680848FFF782FF0346FB81DE
:10059000FB891946044800F0E5F800BF1037BD4656
:1005A00080BD00BF44000240CC00002080B500AFF9
:1005B000FFF7C2FEFFF73CFF00F02CF800F06EF8EA
:1005C000FFF758FEFFF7DAFD00F056F80D4B1B78E9
:1005D000DBB2002B07D00B4B00221A700A48FFF742
:1005E000C7FFFFF747FF094B1B78DBB2002BEDD0AD
:1005F000064B00221A700648FFF7BAFFFFF73AFFD2
:10060000E4E700BFC800002000000020C90000206F
:100610006400002080B400AF154BDB69144A43F03E
:100620000203D361134B00221A60124B00225A605E
:10063000104B41F61F429A620E4B6322DA620D4B59
:100640005B680C4A23F0700353600A4B5B68094AED
:1006500043F020035360074B5B69064A43F00103F4
:100660005361044B00221A6100BFBD4680BC704735
:10067000001002400004004080B400AF064B00228E
:100680005A62054B1B68044A43F00103136000BF24
:10069000BD4680BC704700BF0004004080B400AF7E
:1006A0002B4B9B692A4A43F4804343F00403936134
:1006B000274B5B69264A43F001035361254B5B6876
:1006C000244A23F0F0035360224B5B68214A43F035
:1006D000B00353601F4B5B681E4A23F47063536082
:1006E0001C4B5B681B4A43F4806353601A4B002227
:1006F000DA60194B00221A61174B00225A61174B1E
:1007000000221A60154B00229A60144B0022DA6016
:10071000124B00225A60104B40F271229A600E4B2D
:10072000DB680D4A43F4005343F00803D3600A4BDF
:100730005B69094A43F080035361084B084A9A6099
:10074000064B90221A6000BFBD4680BC704700BFB8
:1007500000100240000801400038014044000240FF
:100760000438014080B483B000AF78600B467B80D2
:100770000E4B1B680D4A23F0010313600B4A7B6884
:10078000D3600A4A7B885360094B5B68084A43F48C
:1007900000535360054B1B68044A43F00103136088
:1007A00000BF0C37BD4680BC704700BF440002400C
:1007B000000002400A480B490B4A884204D21368E1
:1007C000036004300432F8E70848094900228842EF
:1007D00002D202600430FAE7FFF7E8FEFEE700000D
:1007E0000000002000000020F807000800000020A2
:0807F000F8010020FEE7000003
:04000005080007B533
:00000001FF
