:020000040800F2
:1000000000500020950B0008D50B0008D50B000808
:10001000D50B0008D50B0008D50B00080000000028
:10002000000000000000000000000000D50B0008E8
:10003000D50B000800000000D50B0008D50B000808
:10004000D50B0008D50B0008D50B0008D50B000810
:10005000D50B0008D50B0008D50B0008D50B000800
:10006000D50B0008D50B0008D50B0008D50B0008F0
:10007000D50B0008D50B0008D50B0008D50B0008E0
:10008000D50B0008D50B0008D50B0008D50B0008D0
:10009000D50B0008D50B0008D50B0008D50B0008C0
:1000A000D50B0008D50B0008D50B0008D50B0008B0
:1000B000D50B0008D50B0008D50B0008D50B0008A0
:1000C000D50B0008D50B0008D50B0008D50B000890
:1000D000D50B0008D50B0008D50B0008D50B000880
:1000E000D50B0008D50B0008D50B0008D50B000870
:1000F000D50B0008D50B0008D50B0008D50B000860
:10010000D50B0008D50B0008D50B0008D50B00084F
:10011000D50B0008D50B0008D50B0008D50B00083F
:10012000D50B0008D50B0008D50B0008D50B00082F
:1001300080B400AF3A4B1B68394A43F480331360F4
:1001400000BF374B1B6803F40033002BF9D0354B4D
:100150001B68344A43F010031360324B1B68314A6A
:1001600023F0070313602F4B1B682E4A43F0020352
:1001700013602B4B5B682A4A23F0F0035360284B33
:100180005B68274A23F4E0635360254B5B68244A8D
:1001900043F480635360224B5B68214A23F460532D
:1001A00053601F4B5B681E4A43F4803353601C4B03
:1001B0005B681B4A23F400335360194B5B68184A91
:1001C00023F470135360164B5B68154A43F4E01335
:1001D0005360134B1B68124A43F08073136000BFD7
:1001E0000F4B1B6803F00073002BF9D00C4B5B68BE
:1001F0000B4A23F003035360094B5B68084A43F042
:100200000203536000BF064B5B689B0803F00303C7
:10021000022BF8D100BF00BFBD4680BC704700BFB5
:10022000001002400020024080B483B000AF78602C
:100230000FE00E4B0E4A5A600C4B00229A600B4B9B
:1002400005221A6000BF094B1B6803F48033002BA2
:10025000F9D07B685A1E7A60002BEAD1034B00224A
:100260001A6000BF0C37BD4680BC704710E000E04C
:100270003F19010090B58FB002AFFFF759FF00F0B2
:10028000D3F800F00DFA002000F004FB1F230093C8
:100290002023F0220021002000F090FA0223019395
:1002A0001F2300934FF6FF73574A0821182000F0D0
:1002B0002DFC02230193002300934FF6E073534A71
:1002C00032210A2000F022FC022301930023009334
:1002D00040F2FF734E4A4C210A2000F017FC022323
:1002E0000193002300934FF6FF734A4A66210A20C8
:1002F00000F00CFC02230193002300934FF6FF73E0
:10030000454A80210A2000F001FC444B07F110040B
:100310000FCB07C42380002387F82F301BE097F80A
:100320002F309BB21A461201D31A5B009BB20A33DC
:1003300098B297F82F305B0030333B4433F8203CC1
:10034000009328231C22A52100F038FA97F82F30BB
:10035000013387F82F3097F82F30062BDFD94FF66F
:10036000FF730093F023F0220021002000F0EFFA49
:100370000023BB62BB6A5A1CBA627B620A233B62DF
:100380003A1D3B6A134400221A70796A244BA3FB7E
:100390000123DA0813469B0013445B00CA1AD3B248
:1003A0003A6A013A3A623033D9B23A1D3B6A134491
:1003B0000A461A707B6A1A4AA2FB0323DB087B6297
:1003C0007B6A002B02D03B6A002BDEDC0223019308
:1003D000002300934FF6FF73124AD7210A2000F042
:1003E00095FB3A1D3B6A1A440223019300230093B4
:1003F0004FF4FC63D7215E2000F088FB4FF4FA70C5
:10040000FFF712FFB6E700BFD80B0008EC0B00089F
:10041000FC0B0008140C0008200C0008380C000825
:10042000CDCCCCCC300C000880B400AF194B9B690C
:10043000184A43F4805343F004039361164B1B683E
:10044000154A23F470031360134B1B68124A43F4DC
:1004500030031360104B1B680F4A23F07043136086
:100460000D4B1B680C4A43F0304313600B4B0022CA
:100470001A600A4B00225A60084B4CF20F321A6085
:10048000064B1B68054A43F04003136000BFBD469E
:1004900080BC70470010024000080140003001405D
:1004A00080B483B000AF0346FB7100BF064B9B686E
:1004B00003F00203002BF9D0034AFB79D36000BF9D
:1004C0000C37BD4680BC70470030014080B400AF9F
:1004D00000BF094B9B6803F00203002BF9D000BF5B
:1004E000054B9B6803F08003002BF9D100BF00BFD0
:1004F000BD4680BC704700BF0030014080B582B06F
:1005000000AF0346FB71FFF7E1FF0A4B4FF4803267
:100510001A61094B4FF480121A61FB791846FFF7F4
:10052000BFFFFFF7D3FF044B10221A6100BF08374B
:10053000BD4680BD000C01400008014080B582B07E
:1005400000AF0346FB710A4B01221A61094B4FF4BD
:1005500080121A61FB791846FFF7A2FFFFF7B6FF7A
:10056000044B10221A6100BF0837BD4680BD00BF92
:10057000000C01400008014080B400AF1F4B9B6994
:100580001E4A43F00C0393611D4B1B681C4A23F465
:10059000702313601A4B1B68194A43F440331360ED
:1005A000184B1B68174A23F00F031360154B1B6889
:1005B000144A43F003031360124B1B68114A23F0E3
:1005C000F00313600F4B1B680E4A43F030031360B7
:1005D0000C4B5B680B4A23F470635360094B5B68F8
:1005E000084A43F440735360054B10221A61054BCF
:1005F00003221A6100BFBD4680BC70470010024054
:1006000000080140000C014090B583B000AF0446E3
:10061000084611461A462346FB800346BB800B461C
:100620007B8013463B802A20FFF768FFFB881B0A6C
:100630009BB2DBB21846FFF781FFFB88DBB218469E
:10064000FFF77CFF7B881B0A9BB2DBB21846FFF7E3
:1006500075FF7B88DBB21846FFF770FF2B20FFF792
:100660004DFFBB881B0A9BB2DBB21846FFF766FF43
:10067000BB88DBB21846FFF761FF3B881B0A9BB2C1
:10068000DBB21846FFF75AFF3B88DBB21846FFF78C
:1006900055FF2C20FFF732FF00BF0C37BD4690BD41
:1006A00080B500AFFFF768FF434B02221A610A20B2
:1006B000FFF7BAFD404B4FF400321A611420FFF7E8
:1006C000B3FD3D4B02221A619620FFF7ADFD0120DC
:1006D000FFF714FF9620FFF7A7FD1120FFF70EFF8D
:1006E0007820FFF7A1FD3A20FFF708FF5520FFF71C
:1006F00025FF3620FFF702FF0020FFF71FFFB22083
:10070000FFF7FCFE0C20FFF719FF0C20FFF716FF88
:100710000020FFF713FF3320FFF710FF3320FFF710
:100720000DFFB720FFF7EAFE3520FFF707FFBB20DC
:10073000FFF7E4FE1920FFF701FFC020FFF7DEFE00
:100740002C20FFF7FBFEC220FFF7D8FE0120FFF7A9
:10075000F5FEC320FFF7D2FE1220FFF7EFFEC42004
:10076000FFF7CCFE2020FFF7E9FEC620FFF7C6FE0C
:100770000F20FFF7E3FED020FFF7C0FEA420FFF715
:10078000DDFEA120FFF7DAFE2120FFF7B7FE1320E0
:10079000FFF7B4FE0A20FFF747FD2920FFF7AEFE62
:1007A0007820FFF741FD044B4FF480621A6100206E
:1007B00000F070F800BF80BD000C014090B585B01E
:1007C00000AF0446084611461A462346FB800346FE
:1007D000BB800B467B8013463B80FB88EF2B51D8B8
:1007E000BB88EF2B4ED87B88002B4BD03B88002B4F
:1007F00048D0FA887B881344F02B03DDFB88C3F1D3
:10080000F0037B80BA883B881344F02B03DDBB8860
:10081000C3F1F0033B80FA887B8813449BB2013B11
:100820009CB2BA883B8813449BB2013B9BB2B98807
:10083000F8882246FFF7E8FE3B8C1B0A9BB2FB724E
:100840003B8CBB727B883A8802FB03F3FB600F4B47
:1008500001221A610E4B4FF480121A6107E0FB7AF5
:100860001846FFF71DFEBB7A1846FFF719FEFB6816
:100870005A1EFA60002BF2D1FFF728FE044B10221B
:100880001A6100E000BF1437BD4690BD000C014066
:100890000008014080B584B002AF0346FB80FB88AE
:1008A0000093F023F02200210020FFF787FF00BF14
:1008B0000837BD4680BD80B584B002AF0346FB80DB
:1008C0000B46BB8013467B80B988F8887B880093F1
:1008D00001230122FFF772FF00BF0837BD4680BD2C
:1008E00090B585B002AF0446084611461A46234625
:1008F000FB800346BB800B467B8013463B807A8897
:10090000B988F8883B8800930123FFF757FF00BFA1
:100910000C37BD4690BD90B585B002AF0446084681
:1009200011461A462346FB800346BB800B467B805C
:1009300013463B807A88B988F8883B880093134631
:100940000122FFF73BFF00BF0C37BD4690BD90B5BD
:1009500083B000AF0446084611461A462346FB8082
:100960000346BB800B467B8013463B803B8B7A88DB
:10097000B988F888FFF7B4FFBA883B8813449BB264
:10098000013B99B23B8B7A88F888FFF7A9FF3B8B34
:100990003A88B988F888FFF7BEFFFA887B88134445
:1009A0009BB2013B98B23B8B3A88B988FFF7B3FF03
:1009B00000BF0C37BD4690BD90B587B000AF044670
:1009C000084611461A462346FB800346BB800B4669
:1009D000FB7013463B80FB781F2B02D9FB787E2BE4
:1009E00001D93F23FB70FB78A3F1200213469B0043
:1009F0001344434A1344FB6097F82C309BB21A46C9
:100A0000520013445B007B8197F82C309BB2DB00D3
:100A10003B81FA887B891344F02B6CDCBA883B89D4
:100A20001344F02B67DCFA887B8913449BB2013BAB
:100A30009CB2BA883B8913449BB2013B9BB2B988F4
:100A4000F8882246FFF7E0FD2E4B01221A612E4B5B
:100A50004FF480121A610023FB7543E00023BB753D
:100A600038E000237B752FE03B8D7B827B7D042B60
:100A700010D8FB7D062B0DD87B7DFA6813441B78BC
:100A80001A46FB7D42FA03F303F00103002B01D069
:100A90003B887B8200237B740EE07B8A1B0A9BB21F
:100AA000DBB21846FFF7FCFC7B8ADBB21846FFF787
:100AB000F7FC7B7C01337B747A7C97F82C309A426C
:100AC000EBD37B7D01337B757B7D052BCCD9BB7D47
:100AD0000133BB75BA7D97F82C309A42C1D3FB7DA8
:100AE0000133FB75FB7D072BB8D9FFF7EFFC064BF5
:100AF00010221A6100E000BF1C37BD4690BD00BF48
:100B0000480C0008000C01400008014090B587B077
:100B100002AFBA601A460346FB810B46BB811346FF
:100B2000FB802DE0F98997F8242013465B001344DD
:100B30005B000B44F02B09DD0023FB8197F8243088
:100B40009BB2DB009AB2BB891344BB81BB685A1CC1
:100B5000BA601A78FC88B989F88997F8243001932B
:100B60003B8C00932346FFF727FF97F824309BB276
:100B70001A46520013445B009AB2FB891344FB816E
:100B8000BB681B78002BCDD100BF00BF1437BD461A
:100B900090BD00BF0A480B490B4A884204D2136833
:100BA000036004300432F8E708480949002288420B
:100BB00002D202600430FAE7FFF75CFBFEE70000B8
:100BC0000000002000000020240E0008000000208B
:100BD00000000020FEE70000535049202B2054461F
:100BE00054205354373738390000000053544D33E4
:100BF00032463130334338543600000053504931C7
:100C0000202D205265676973746572206C65766566
:100C10006C0000004C6F703A204C6F7058595A00AD
:100C20004E686F6D3A204E686F6D303100000000E5
:100C3000436F756E743A200000F820FDE0FFE00776
:100C4000FF071F001FF80000000000000000005F09
:100C500000000007000700147F147F14242A7F2A55
:100C60001223130864623649562050000807030017
:100C7000001C2241000041221C002A1C7F1C2A0863
:100C8000083E0808008070300008080808080000C6
:100C900060600020100804023E5149453E00427F3A
:100CA000400072494949462141494D331814127F89
:100CB0001027454545393C4A494931412111090729
:100CC0003649494936464949291E000014000000AA
:100CD000403400000008142241141414141400417C
:100CE00022140802015909063E415D594E7C121139
:100CF000127C7F494949363E414141227F41414171
:100D00003E7F494949417F090909013E41415173EB
:100D10007F0808087F00417F41002040413F017F5C
:100D2000081422417F404040407F021C027F7F0424
:100D300008107F3E4141413E7F090909063E41516D
:100D4000215E7F09192946264949493203017F015D
:100D5000033F4040403F1F2040201F3F4038403F5E
:100D6000631408146303047804036159494D430074
:100D70007F4141410204081020004141417F0402AB
:100D80000102044040404040000307080020545442
:100D900078407F2844443838444444283844442820
:100DA0007F385454541800087E090218A4A49C7873
:100DB0007F0804047800447D40002040403D007FCF
:100DC0001028440000417F40007C047804787C08AF
:100DD0000404783844444438FC1824241818242483
:100DE00018FC7C08040408485454542404043F4468
:100DF000243C4040207C1C2040201C3C4030403C97
:100E000044281028444C9090907C4464544C4400F6
:100E1000083641000000770000004136080002015A
:040E200002040200C6
:0400000508000B954F
:00000001FF
