:020000040800F2
:10000000005000202519000865190008651900082E
:10001000651900086519000865190008000000004E
:10002000000000000000000000000000651900084A
:10003000651900080000000065190008651900082E
:100040006519000865190008651900086519000898
:100050006519000865190008651900086519000888
:100060006519000865190008651900086519000878
:100070006519000865190008651900086519000868
:100080006519000865190008651900086519000858
:100090006519000865190008651900086519000848
:1000A0006519000865190008651900086519000838
:1000B0006519000865190008651900086519000828
:1000C0006519000865190008651900086519000818
:1000D0006519000865190008651900086519000808
:1000E00065190008651900086519000865190008F8
:1000F00065190008651900086519000865190008E8
:1001000065190008651900086519000865190008D7
:1001100065190008651900086519000865190008C7
:1001200065190008651900086519000865190008B7
:1001300080B400AF0D4B9B690C4A43F004039361FC
:100140000B4B1B680A4A23F00F031360084B1B6814
:10015000074A43F008031360054BDB68044A43F089
:100160000103D36000BFBD4680BC70470010024051
:100170000008014080B400AF064B9B6803F0010308
:10018000002B01D1012300E000231846BD4680BCAE
:10019000704700BF0008014080B400AF0D4B9B6961
:1001A0000C4A43F0100393610B4B5B680A4A23F43B
:1001B00070035360084B5B68074A43F44013536075
:1001C000054BDB68044A43F40053D36000BFBD46CF
:1001D00080BC7047001002400010014080B483B022
:1001E00000AF0346FB71FB79002B06D0084BDB68A0
:1001F000074A23F40053D36005E0054BDB68044A4B
:1002000043F40053D36000BF0C37BD4680BC704739
:100210000010014080B483B000AF0346FB71FB794E
:100220001B09DBB21A46920013445B00DAB2FB7979
:1002300003F00F03DBB21344DBB218460C37BD46A4
:1002400080BC704780B483B000AF0346FB71FB797C
:100250000D4AA2FB0323DB08DBB21B0158B2FA797B
:10026000094BA3FB0213D9080B469B000B445B0010
:10027000D31ADBB25BB203435BB2DBB218460C3776
:10028000BD4680BC704700BFCDCCCCCC80B500AFA4
:10029000012000F0EFF800BF80BD80B582B000AF54
:1002A00078602F4800F07CF9002268212C4800F08B
:1002B000B2F900212A4800F0FBF97B681B78184648
:1002C000FFF7C0FF034603F07F03DBB21946244863
:1002D00000F0EEF97B685B781846FFF7B3FF034642
:1002E00019461F4800F0E4F97B689B781846FFF731
:1002F000A9FF034603F03F03DBB21946184800F09C
:10030000D7F97B68DB781846FFF79CFF0346194650
:10031000134800F0CDF97B681B791846FFF792FF70
:10032000034619460E4800F0C3F97B685B7918460E
:10033000FFF788FF03461946094800F0B9F97B68C2
:100340009B791846FFF77EFF03461946044800F0E4
:10035000AFF9034800F050F900BF0837BD4680BD33
:100360000054004080B582B000AF7860404800F093
:1003700017F9002268213E4800F04DF900213C4861
:1003800000F096F93A4B1B68394A43F480631360D6
:10039000374800F005F901226821354800F03BF9A3
:1003A0000121334800F0C0F9034603F07F03DBB2BC
:1003B0001846FFF72FFF03461A467B681A70012183
:1003C0002B4800F0B1F903461846FFF723FF034618
:1003D0001A467B685A700121254800F0A5F90346AA
:1003E00003F03F03DBB21846FFF714FF03461A463B
:1003F0007B689A7001211E4800F096F90346184662
:10040000FFF708FF03461A467B68DA700121184897
:1004100000F08AF903461846FFF7FCFE03461A4629
:100420007B681A710121124800F07EF903461846D4
:10043000FFF7F0FE03461A467B685A7100210C480C
:1004400000F072F903461846FFF7E4FE03461A4629
:100450007B689A71064800F0CFF8054B1B68044A88
:1004600043F48063136000BF0837BD4680BD00BF02
:100470000054004080B483B000AF0346FB71434B8F
:1004800000221A70424B9B69414A43F00103936179
:10049000FB79012B3CD13E4BDB693D4A43F4001311
:1004A000D3613B4B9B693A4A43F008039361394B54
:1004B0001B68384A23F07F431360364B1B68354A6C
:1004C00043F07F431360344B1B68334A43F40043CB
:1004D0001360314B1B68304A23F4004313602E4BEA
:1004E0005B682D4A23F03F0353602B4B5B682A4A1D
:1004F00043F024035360284BB422DA61264B2522B3
:100500001A62254B1B68244A43F00103136038E04C
:10051000FB79022B35D11E4BDB691D4A43F4800366
:10052000D3611B4B9B691A4A43F008039361194B33
:100530005B68184A23F47F435360164B5B68154A87
:1005400043F47F435360154B1B68144A43F4004344
:100550001360124B1B68114A23F4004313600F4BC6
:100560005B680E4A43F0240353600C4BB422DA61FB
:100570000A4B25221A62094B1B68084A43F0010303
:10058000136000BF0C37BD4680BC7047640000207C
:1005900000100240000C0140005400400058004090
:1005A00080B485B000AF7860114BFB60114B002226
:1005B0001A707B681B6843F480727B681A6000BF06
:1005C0007B685B6903F00103002B05D1FB68013BED
:1005D000FB60FB68002BF3D1FB68002B02D1054BBD
:1005E00001221A7000BF1437BD4680BC704700BF9F
:1005F00040420F006400002080B483B000AF7860F8
:100600007B681B6843F400727B681A6000BF0C377C
:10061000BD4680BC704780B485B000AF78600B46A3
:10062000FB701346BB70204BFB60FB785A00BB7815
:1006300003F0010313431A467B681A610FE07B68DD
:100640005B6903F48063002B09D0184B02221A70F7
:100650007B681B6843F400727B681A601FE07B684C
:100660005B6903F00203002B05D1FB68013BFB60D3
:10067000FB68002BE3D1FB68002B09D10B4B032255
:100680001A707B681B6843F400727B681A6006E08E
:100690007B685B69BB607B689B69BB60BB68143728
:1006A000BD4680BC704700BF40420F006400002080
:1006B00080B485B000AF78600B46FB70184BFB60D0
:1006C00000BF7B685B6903F08003002B05D1FB68EA
:1006D000013BFB60FB68002BF3D1FB68002B03D1CF
:1006E000104B04221A7017E0FA787B681A610C4BE1
:1006F000FB6000BF7B685B6903F00403002B05D13E
:10070000FB68013BFB60FB68002BF3D1FB68002B0F
:1007100002D1044B05221A701437BD4680BC7047C5
:1007200040420F006400002080B485B000AF7860C4
:100730000B46FB70174BFB60FB78002B06D07B68E9
:100740001B6843F480627B681A6005E07B681B6865
:1007500023F480627B681A6000BF7B685B6903F0EA
:100760004003002B05D1FB68013BFB60FB68002BBD
:10077000F3D1FB68002B04D1074B06221A7000232B
:1007800002E07B681B69DBB218461437BD4680BCAB
:10079000704700BF40420F006400002080B400AFEB
:1007A000034B1B78DBB21846BD4680BC704700BFC8
:1007B0006400002080B400AF414B1B68404A43F402
:1007C0008033136000BF3E4B1B6803F40033002BE3
:1007D000F9D03C4B1B683B4A43F010031360394B84
:1007E0001B68384A23F007031360364B1B68354AF1
:1007F00043F002031360324B5B68314A23F0F0038D
:1008000053602F4B2E4A5B6853602D4B5B682C4A1C
:1008100023F4E06353602A4B5B68294A43F4806306
:100820005360274B5B68264A23F460535360244B84
:10083000234A5B685360224B5B68214A23F4803370
:1008400053601F4B5B681E4A43F4803353601C4B5C
:100850005B681B4A23F400335360194B5B68184AEA
:1008600023F470135360164B5B68154A43F4E0138E
:100870005360134B1B68124A43F08073136000BF30
:100880000F4B1B6803F00073002BF9D00C4B5B6817
:100890000B4A23F003035360094B5B68084A43F09B
:1008A0000203536000BF064B5B689B0803F0030321
:1008B000022BF8D100BF00BFBD4680BC704700BF0F
:1008C000001002400020024080B483B000AF786086
:1008D0000FE00E4B0E4A5A600C4B00229A600B4BF5
:1008E00005221A6000BF094B1B6803F48033002BFC
:1008F000F9D07B685A1E7A60002BEAD1034B0022A4
:100900001A6000BF0C37BD4680BC704710E000E0A5
:100910003F19010080B59AB000AFFFF74BFF0023ED
:100920007B6600F043F8FFF703FCFFF735FCFFF7A9
:1009300021FC0346002B30D00120FFF74FFC142090
:10094000FFF7C2FFFFF716FC0346002BEFD07B6ECC
:1009500001337B663B467A6E1249184600F0D0F8A8
:1009600000BF114B5B68002BFBD13B46184600F0E3
:10097000E9F803469AB23B461146184600F07AF869
:1009800000BFFFF7F7FB0346002BFAD10020FFF76B
:1009900025FC1420FFF798FFC9E70020FFF71EFC95
:1009A000C5E700BF681900084400024080B400AFEA
:1009B0002B4B9B692A4A43F4804343F00403936121
:1009C000274B5B69264A43F001035361254B5B6863
:1009D000244A23F0F0035360224B5B68214A43F022
:1009E000B00353601F4B5B681E4A23F4706353606F
:1009F0001C4B5B681B4A43F4806353601A4B002214
:100A0000DA60194B00221A61174B00225A61174B0A
:100A100000221A60154B00229A60144B0022DA6003
:100A2000124B00225A60104B41F64C529A600E4B0A
:100A3000DB680D4A43F4005343F00803D3600A4BCC
:100A40005B69094A43F080035361084B084A9A6086
:100A5000064B90221A6000BFBD4680BC704700BFA5
:100A600000100240000801400038014044000240EC
:100A70000438014080B483B000AF78600B467B80BF
:100A80000E4B1B680D4A23F0010313600B4A7B6871
:100A9000D3600A4A7B885360094B5B68084A43F479
:100AA00000535360054B1B68044A43F00103136075
:100AB00000BF0C37BD4680BC704700BF44000240F9
:100AC000000002400CB430B50C466FF000459DB0FC
:100AD0000A4A20AB059253F8042B02A9CDE9013450
:100AE00007950495069400F03BF90022029B1A70CA
:100AF0001DB0BDE8304002B0704700BF0802FFFFE4
:100B00000EB430B504466FF000459CB00B4A1FABE5
:100B10000B49059253F8042B086802A9CDE901346A
:100B200007950495069400F01BF90022029B1A70A9
:100B30001CB0BDE8304003B0704700BF0802FFFFA3
:100B40000000002020F0030110F00300C0F10000BD
:100B500051F8043B00F1040C4FEACC0C6FF000029A
:100B60001CBF22FA0CF213434FF0010C4CEA0C2C80
:100B70004CEA0C4CA3EB0C0222EA030212EACC1260
:100B800004BF51F8043B0430F4D0C2F1000102EA82
:100B90000102B2FA82F2C2F11F0200EBD2007047EA
:100BA0002DE9F0478F680C469F421D46164638D8FF
:100BB0008246888910F4906F0ED13D4608682A4617
:100BC000314600F091FC0020A2682368D21B2B4420
:100BD000A2602360BDE8F0874B69096903EB430815
:100BE000236808EBD878A3EB01096B1C4FEA68086F
:100BF0004B444345424684BF98464246430513D57D
:100C00001146504600F052FD074608B34A46216996
:100C100000F0F4FBA38923F4906343F08003A381E5
:100C200007E01F460868CAE7504600F09BFD0746EC
:100C300050B107EB0900A8EB09032761C4F8148041
:100C40002F46A3602060BAE75046216900F0C8FC37
:100C50000C23CAF80030A3894FF0FF3043F0400363
:100C6000A381B7E72DE9F04F9368914683B0002B3D
:100C70006ED0176880460C4608688D68083744E0D7
:100C8000B4F80CC01CF4906F2ED0D4E90413451AAC
:100C900003EB430303EBD373AA194FEA630A531C14
:100CA0005345524684BF9A4652461CF4806F36D054
:100CB0001146404600F0FAFC00283AD02A46216945
:100CC000019000F09BFBA289019B22F4906242F00C
:100CD0008002A2815819AAEB0505A560C4F814A0EA
:100CE0003546B246236120605946524600F0FCFB6F
:100CF000D9F80830A16820684D1B50449E1BA560A0
:100D00002060C9F808601EB3083757E902B6002E04
:100D1000FAD0B542AA46B3D93546B246E4E74046D2
:100D200000F020FD03460028D4D14046216900F0A0
:100D300057FC0C2300224FF0FF30C8F80030A38985
:100D400043F04003A381C9E9012203B0BDE8F08F5D
:100D500000231846C9F8043003B0BDE8F08F00BF87
:100D60002DE9F04F1C468B890F461D0680469246A2
:100D70009DB003D50B69002B00F0F380002309938D
:100D8000302320228DF82A309AF800300394012570
:100D90007B4C8DF82920002B76D0D14603E019F842
:100DA000013F002B79D0252BF9D1B9EB0A0B77D174
:100DB00099F80020002A67D000234FF0FF3209F194
:100DC0000109CDE90523049307938DF853301A9355
:100DD00004E0001B05FA00F018430490CA460522FF
:100DE000204619F8011B00F0C1FA049B0028F0D13D
:100DF000D80644BF20228DF85320190748BF2B2264
:100E00009AF8001048BF8DF853202A2956D1039A2A
:100E100011680432002903927EDB07919AF80110D1
:100E20000AF1010A2E295BD0DFF8589103224846C7
:100E300000F09CFA48B14022049BA0EB090002FAA2
:100E400000F003430AF1010A04931AF8011B062279
:100E50004D488DF8281000F089FA002862D04B4BDD
:100E6000002B52D003A900913A464046484B04A9B2
:100E7000AFF300800646721C06D0099B33440993E9
:100E80009AF80030002B88D1BB895B064CBF4FF02D
:100E9000FF3009981DB0BDE8F08FB9EB0A0BF3D015
:100EA0005B46524639464046FFF77AFE0130EBD0AA
:100EB000099B99F800205B4409937BE7A1F130027C
:100EC000092AAFD8079B1AF8011F03EB830302EB33
:100ED0004303A1F13002092AF5D92E290793A3D1A2
:100EE0009AF801102A2927D1039B0AF102001A68F7
:100EF0000433002A0393B8BF4FF0FF339AF802106F
:100F000005928246B8BF05938EE7039B073323F013
:100F1000070308330393B0E7494243F00203079104
:100F200004937BE703A900913A464046184B04A975
:100F300000F0C6F806469EE70023A1F13002092A18
:100F40000AF1010A05933FF66FAF1AF8011F03EB90
:100F5000830302EB4303A1F13002092AF5D905937B
:100F600062E7402100F0A2FB3860386110B14023F5
:100F70007B6103E70C234FF0FF30C8F8003089E7AE
:100F8000841900088C19000890190008000000005E
:100F9000A10B00082DE9F04791461E460A698B68AF
:100FA0000C469A42B8BF1A46C9F8002091F843305F
:100FB0000546DDF8208013B10132C9F8002022680F
:100FC00091065DD5D9F800300233C9F800302268A7
:100FD00012F0060F11461ED1E168CB1A002BD8BFC4
:100FE000114618DD002704F1190A06E0D9F800308F
:100FF000E268A2EB030CBC450CDD012352463146EE
:101000002846C047013007F10107EFD14FF0FF300C
:10101000BDE8F087216894F84330003B18BF0123F6
:101020008A060AD53021E21882F8431094F8451058
:101030005A1C2244023382F843103146284604F1F8
:101040004302C0470130E1D0236803F00603042BBC
:101050001DD0A3682269934225DD00279B1A1F44F7
:1010600004F11A09002401E0BC421CDA01234A46BB
:1010700031462846C047013004F10104F4D1C5E7E8
:1010800012F0060F12D0003B18BF0123D5E7D9F8A4
:101090000030E1682269C91AA36821EAE177934226
:1010A000DCDC0029DCDC0020BDE8F087E168D9F851
:1010B0000030CB1A002BD8BF114693DCABE700BF42
:1010C0002DE9F04317460A7E85B00C460646984641
:1010D0000C9D01F1430C002A33D0A2F15803D9B280
:1010E000202967D8202B65D8DFE813F0DD006400E5
:1010F00064006400640064006400640064006400D0
:101100006400A3006E0064006400640064006E006C
:10111000640064006400640021007F00BF0064007C
:101120006400AE0064007F0064006400E400236893
:101130001A0640F102812B686269191D29601B683B
:101140001A600023E14623613B4621463046CDF834
:10115000008003AAFFF71EFF013020D04A4639461F
:1011600030462369C047013019D02368E0689B07E7
:10117000039919D5431A002B16DD002504F119092E
:1011800004E0E0680399431AAB420DDD01234A46AF
:1011900039463046C047013005F10105F1D14FF025
:1011A000FF3005B0BDE8F0838842B8BF084605B0FF
:1011B000BDE8F083012384F8422004F14209236151
:1011C000002384F84330BFE72368190602D45A0687
:1011D00000F1BF8029680A68043129601146002A9D
:1011E0006ADB0A25DFF87CE110E02368180640F18D
:1011F0009A802B68191D296019686F2A0CBF082571
:101200000A25DFF860E1002384F843306268002A91
:10121000A2607DDB236823F004032360002959D1F9
:10122000002A77D1E146082D63D0ACEB0903236196
:101230008AE701222B6804F14209196804332B6004
:1012400084F842102261BBE72B6800211A1D2A6036
:10125000D3F800906268484600F088F800287FD0F4
:10126000A0EB090060602061AAE7236843F0200337
:1012700023607822DFF8F0E084F845202A68111D09
:101280002960190642D45D0640D51188D80744BFAD
:1012900043F020032360002943D12368102523F065
:1012A00020032360AFE75823DFF8B8E084F8453027
:1012B0002368E3E72368DCE72D2284F84320626893
:1012C0004942002AA26002DB23F0040323600A25BE
:1012D000DFF890E0E146B1FBF5F30A4605FB131099
:1012E00019461EF80030AA4209F8013DF3D2082D34
:1012F0009BD12368D90798D5626823699A4294DC08
:10130000302309F1FF3989F800308EE71168BDE715
:101310000029DFD19EF8003004F1420984F8423000
:1013200081E710256FE713F0400F2B6803F10401EC
:1013300029600CBF196819885FE713F0400F2B680C
:10134000626903F1040129601B6814BF1A801A60E6
:10135000F7E62A68B2F9001004322A600A463EE72E
:10136000606880E798190008AC1900085FFA81FCF2
:10137000810710D00346511E2AB90AE09A07184681
:101380000AD0013905D3184613F8012B6245F5D16F
:10139000704700207047114603290CD80029F8D067
:1013A0000346014401E08B42F3D0184613F8012BA9
:1013B0006245F8D1ECE7024610B54CEA0C2444EA49
:1013C00004441046036804326340A3F1013E2EEA50
:1013D000030313F0803F04D1043903291046F0D8E9
:1013E00051B10346014401E08B4205D0184613F881
:1013F000012B6245F8D110BD002010BD844641EAA2
:10140000000313F0030349D1403A23D30B68036070
:101410004B6843608B688360CB68C3600B69036172
:101420004B6943618B698361CB69C3610B6A03625A
:101430004B6A43628B6A8362CB6AC3620B6B036342
:101440004B6B43638B6B8363CB6BC3634030403127
:10145000403ADBD230320BD30B6803604B684360F9
:101460008B688360CB68C36010301031103AF3D2C0
:101470000C3205D351F8043B40F8043B043AF9D24E
:10148000043208D0D2071CBF11F8013B00F8013B21
:1014900001D30B8803806046704700BF082A13D32E
:1014A0008B07B1D010F00303AED0C3F10403D21AFE
:1014B000DB071CBF11F8013B00F8013BA4D331F856
:1014C000023B20F8023B9FE7043AD9D3013A11F8D6
:1014D000013B00F8013BF9D20B7803704B78437065
:1014E0008B7883706046704788420DD98B18834291
:1014F0000AD900EB020CBAB1624613F801CD994249
:1015000002F801CDF9D170470F2A0ED8034602F137
:10151000FF3C4AB10CF1010C013B8C4411F8012B4A
:10152000614503F8012FF9D1704740EA01039B0799
:101530004FD1A2F1100370B501F1200C23F00F057B
:1015400001F1100E00F11004AC441B095EF8105CB0
:101550000EF1100E44F8105C5EF81C5C103444F878
:101560001C5C5EF8185C44F8185C5EF8145CE64598
:1015700044F8145CEAD1013312F00C0F01EB0311B3
:1015800002F00F0400EB031327D08E46043C24F036
:1015900003064FEA940C1E441C1F5EF8045B44F8DB
:1015A000045FB442F9D10CF1010402F0030203EB31
:1015B000840301EB840102F1FF3C4AB10CF1010C00
:1015C000013B8C4411F8012B614503F8012FF9D13F
:1015D00070BD034602F1FF3C9CE72246EBE700BFEB
:1015E000002952D038B551F8043C0C1F002BB8BF6D
:1015F000E418054600F0F0F82B4A1368002B45D09C
:10160000A3420CD921686018834228D06360284621
:101610001460BDE8384000F0E1B8A3420FD81A4684
:101620005B68002BF9D11168501884421DD034D367
:10163000636054602846BDE8384000F0CFB81168B8
:101640005018A04215D028D8216860188342EFD1E5
:1016500018685B680144C4E900135460EAE718683D
:101660005B680144C4E90013D1E7236819441160A1
:10167000E0E720680144501883421160DAD1D3E9D1
:1016800000030144C2E90013D4E7704728466360B1
:101690001460BDE8384000F0A1B80C2328462B6048
:1016A000BDE8384000F09AB868000020F8B5CD1CBD
:1016B00025F0030508350C2D38BF0C25002D0646F6
:1016C00023DBA94221D8264F00F086F83A6822B3DE
:1016D000144603E063682246FBB11C4623685B1B8B
:1016E000F8D40B2B15D8636894420CBF3B60536051
:1016F000304600F073F804F10B00231D20F00700C2
:10170000C21A01D01B1AA350F8BD0C23002033606D
:10171000F8BD23601C442560EAE77968D1B1294609
:10172000304600F047F8431C01460CD0C41C24F09E
:101730000304A04205D03046611A00F03BF80130A6
:1017400001D02560D4E70C233046336000F046F822
:101750000020F8BD304600F02DF87860DFE700BFCC
:1017600068000020F8B51446F9B1CAB106460D4626
:1017700000F036F8A04202D32F463846F8BD214685
:101780003046FFF793FF07460028F6D02246294649
:10179000FFF734FE30462946FFF722FF3846F8BDF2
:1017A0002746FFF71DFF3846F8BD1146BDE8F84053
:1017B000FFF77CBF002238B5064D044608462A6074
:1017C00000F0A2F8431C00D038BD2B68002BFBD0E2
:1017D000236038BD70000020704700BF704700BF15
:1017E00051F8040C0028A0F10400BCBF0B58C0182D
:1017F000704700BF2DE9F0410E680C460546BEB1AA
:1018000037688FB1D7F80080B8F1000F08D0D8F84A
:10181000001009B1FFF7EEFF41462846FFF7E0FE52
:1018200039462846FFF7DCFE31462846FFF7D8FE4A
:1018300021462846BDE8F041FFF7D2BE314B1B6878
:10184000834259D0426A70B50546002A4FD0D1680C
:1018500091B100268C5944B1214624682846FFF7EF
:10186000BFFE002CF8D16B6AD9680436802EF1D106
:101870002846FFF7B5FE6A6A116800293DD0284660
:10188000FFF7AEFE696911B12846FFF7A9FE6A6A43
:101890001AB111462846FFF7A3FEA96B11B12846DD
:1018A000FFF79EFEE96B11B12846FFF799FE296C00
:1018B00011B12846FFF794FEE96D11B12846FFF7F4
:1018C0008FFEA96D11B12846FFF78AFE696B11B131
:1018D0002846FFF785FEAB696BB12846AB6A98478F
:1018E000A96C41B12846BDE87040FFF783BF41694C
:1018F0000029C9D1D1E770BD704769690029C3D1FA
:10190000C7E700BF00000020044A05491368002B08
:1019100008BF0B461844106018467047740000203A
:10192000780000200A480B490B4A884204D2136809
:10193000036004300432F8E708480949002288426D
:1019400002D202600430FAE7FEF7E4FFFEE700008F
:101950000000002064000020C0190008640000207E
:1019600078000020FEE700004C6F7058595A5F4E17
:10197000686F6D30313A42544E3A256C750A0D004D
:1019800004000020232D302B20000000686C4C0048
:1019900065666745464700003031323334353637A7
:1019A000383941424344454600000000303132336B
:1019B000343536373839616263646566000000008B
:1019C00004000020000000000000000000000000F3
:1019D0000000000000000000000000000000000007
:1019E00000000000000000000000000000000000F7
:1019F00000000000000000000000000000000000E7
:101A000000000000000000000000000000000000D6
:101A100000000000000000000000000000000000C6
:041A200000000000C2
:0400000508001925B1
:00000001FF
